:020000040800F2
:10000000885D0020695A0008F1250008F3250008E2
:10001000F7250008FB250008FF2500080000000068
:10002000000000000000000000000000032600089F
:100030000526000800000000072600080926000821
:10004000835A0008835A0008835A0008835A00081C
:10005000835A0008835A0008835A0008835A00080C
:10006000835A0008835A0008835A0008835A0008FC
:10007000835A0008835A0008835A0008835A0008EC
:10008000835A0008835A0008835A0008835A0008DC
:10009000835A0008835A0008835A0008835A0008CC
:1000A000835A0008835A0008835A0008835A0008BC
:1000B00095270008C9270008FD270008835A000873
:1000C000835A0008835A0008835A0008835A00089C
:1000D000835A00081126000875260008D526000856
:1000E000835A0008835A0008835A0008835A00087C
:1000F000835A0008835A0008835A0008835A00086C
:10010000835A0008835A0008835A0008835A00085B
:1001100035270008835A0008835A0008835A0008CC
:10012000835A0008835A0008835A0008835A00083B
:10013000DFF80CD006F0D2F800480047950200081E
:10014000885D002010B500F0D3FA00F00FFC00F03D
:10015000BDF85B48007820B100F0BAFE0020584995
:1001600008705848007820B100F002FF002055497F
:10017000087010BD10B5C2B001A902A801F013FEAD
:100180009DF80800012801D042B010BD9DF809007B
:1001900018B9002000F051FF38E09DF8090001284F
:1001A00009D19DF80B409DF80A0040EA042420463E
:1001B00000F08AFF2AE09DF80900022803D10120FF
:1001C00000F099FF22E09DF80900302803D10120BA
:1001D0003C4908701AE09DF80900312803D101203C
:1001E0003749087012E09DF80900F02807D19DF802
:1001F0000A00012802D13449087007E006E09DF8A2
:100200000900F12802D100202F49087000BFBBE788
:1002100010B5FFF7AFFF10BD10B500F0C9F80A2008
:1002200000F02DF910BD10B502F020FB4FF47A70EC
:1002300002F059FB4FF480724FF4E131012002F0DB
:10024000EBFC4FF480724FF4E131022002F0E4FC49
:100250000A2002F073FBAFF23F0002F0E7FB4FF41D
:10026000FA7002F0F1FBAFF2570002F053FC4FF4CA
:100270007A7002F05DFCAFF2331002F0BFFC7C201C
:1002800001F0B4F9782001F097FA00F08FFF01F047
:1002900007F810BDFFF7C7FF02F019FC00F0A5F842
:1002A00002F094FB02F087FC08E000F003FC03E09E
:1002B00000F03BFC00B100E0FAE700BFF5E700000A
:1002C0000200002003000020010000202DE9F04F73
:1002D00089B0F749086A05F0DBFE04460022F54BB9
:1002E00005F09FFDCDE90201F149886905F0D0FED6
:1002F00004460022EF4B05F094FDCDE90001DDE955
:10030000022305F0FFFD06460022EB4B05F089FDB8
:10031000CDE9040105F0A5FE1FFA80F9484605F075
:100320007FFE82460022E54B05F0ECFDCDE906019B
:1003300005F097FE00F0FF08782001F03DFAB8F1D3
:10034000030F02DB082001F0F8F9B8F1020F02DB1D
:10035000102001F0F2F9B8F1010F02DB202001F0CA
:10036000ECF9B8F1000F02DB402001F0E6F9D448C7
:100370000078012802D1402001F01EFA09B0BDE842
:10038000F08F2DE9F0470446CE4E204600F0D0FE17
:10039000A0F11F09484605F024FE8046314605F0CD
:1003A00025FC074605F049FE85B22846BDE8F087E2
:1003B00070B500F00FFE0546C348854200D9002500
:1003C000BB480560002409E0601CC0B200F013FEC9
:1003D000B749083121F81400601CC4B2052CF3DBC6
:1003E00000F020FEB249488270BD2DE9F05FFFF7B2
:1003F000DFFF00F08FFEAE49888200F074FE0446F5
:1004000005F0F8FDAA4908620846B0F808904FF0D8
:1004100001080DE0A648083030F81800484503DA16
:10042000A348083030F8189008F1010000F0FF08E8
:10043000B8F1050FEEDB4846FFF7A3FF9C49C880E3
:10044000C88805F0D7FD83469948016A584605F0EB
:10045000CDFB824605F01CFE064600229B4B05F0B4
:1004600051FD044605F03EFE91498861FFF72EFFDD
:1004700000209749086097490870BDE8F09F2DE972
:10048000F14F86B093480078022852D1069805F0C3
:10049000C7FDCDE902018649086805F0C1FD804627
:1004A0000022844B05F0BDFCCDE90001DDE902230B
:1004B00005F0B7FC06460022874B05F023FDCDE989
:1004C00004017B49886905F0E3FD0446DDE9042366
:1004D00005F0A1FC824605F005FE75498861069885
:1004E00005F09EFDCDE902017149086805F098FD0F
:1004F000824600226F4B05F094FCCDE90001DDE956
:10050000022305F08EFC0022734BCDE9040105F0B7
:10051000F9FC04460D466E48006805F0B9FD8046BA
:1005200022462B4605F0D8FB064605F0DBFD684960
:10053000086007B0BDE8F08F2DE9F14F84B0614845
:100540000290029805F0A4FD06460F46049805F0B7
:1005500067FD80460022574B05F063FC32463B4660
:10056000CDE9000105F0CEFC044600225B4B05F00E
:10057000B3FB824605F075FD80B20490049800F04C
:10058000D0FD0390039805B0BDE8F08F2DE9F04F42
:100590008DB0474AD188508A00F068FD074644482C
:1005A000808CB84202DD4FF07E5519E04049888CBE
:1005B00005F036FDCDE90801384605F031FD002291
:1005C0003C4BCDE9040105F02CFCCDE90601DDE949
:1005D000082305F097FCCDE90A0105F083FD0546E7
:1005E000002434E02046FFF7A7FF80463049488AC0
:1005F000214600F03BFD8146484605F0FBFC2946BC
:100600000B9005F0F3FA834605F017FD1FFA80F909
:100610002749096801FB09F005F002FD304A314B1A
:10062000CDE9060105F0FDFB2F4A304BCDE908016D
:1006300005F0F7FBCDE90A0105F013FD1FFA80FA7A
:100640000AF6B830804500DB04E0601C84B2B4F5E3
:100650007A7FC7DD00BF204605F0CCFC019014482E
:10066000016A019805F0C2FA834605F011FD0022E7
:10067000104BCDE9020105F0D4FB0022134BCDE96C
:10068000040105F03FFCCDE908010949886905F03E
:10069000FFFCCDE90601DDE9082305F0BCFBCDE94F
:1006A0000A0105F01FFD064630460DB0BDE8F08F8B
:1006B000700800200000F03F000059400000394061
:1006C000010000204E18843FE022020000408F40CD
:1006D0000C0000200600002040774B4100003F4006
:1006E0007B14AE47E17A843FFCA9F1D24D62503FC2
:1006F0002DE9F04F89B0FC48B0F8089001260BE0D6
:10070000F948083030F81600484503DAF648083052
:1007100030F81690701CC6B2052EF1DB0020F249AD
:100720008880002609E0F0488188083030F81600FB
:100730000844ED498880701CC6B2052EF3DB00F03A
:10074000D2FC044605F056FCE7490862E748007809
:10075000022847D1E6480068401CE5490860E24AA3
:10076000116A906905F078FA0546E24905F03EFA0B
:10077000044605F062FC1FFA80FADB4AD188508AF1
:1007800000F074FCD849096800FB01FB584605F0ED
:1007900047FCD94AD94BCDE9000105F042FB04469C
:1007A0000022D74B05F0AEFBCDE90401484605F029
:1007B00037FC04460022D34B05F033FBCDE90201A0
:1007C000DDE9042305F088FACDE9060105F049FCCE
:1007D0001FFA80F84046FFF7D4FD0890C248A0F801
:1007E00006A033E0C8480088002813DDC64800880A
:1007F000401EC5490880BC4A116A906905F02CFA70
:100800000546BC4905F0F2F9044605F016FCB64968
:10081000C8801BE04846FFF7B4FDB349C880C888CC
:1008200005F0E8FB0590B048016A059805F0DEF98F
:10083000834605F02DFC0022B44BCDE9060105F0FE
:1008400061FB044605F04EFCA7498861A748007883
:1008500002287BD1A449C888FFF76EFE8046A249D2
:10086000086805F0DDFBCDE90401A8EB090164226D
:1008700051434FF47A7201FB02F005F0C0FB0022F5
:10088000A04BCDE9000105F0CCFACDE90201DDE98C
:10089000042305F037FB00229D4BCDE9060105F04E
:1008A000C0FA044605F0DDFB07469A48008808BBFD
:1008B0008D48408A9849974A128821F832008A4820
:1008C000C088944A128801EBC2014880924891493D
:1008D000098800EBC10047608F488E49098800EB0A
:1008E000C1004068804988848A480088401C894942
:1008F00008802BE07C48C18886480088401E864AD4
:1009000002EBC0004088814220D07748408A1146DF
:10091000804A128821F832007348C0887D4A1288C4
:1009200001EBC20148807C487A49098800EBC1008C
:10093000476079487749098800EBC10040686A49F7
:10094000888474480088401C724908806748007891
:10095000022804D1FFF71AFE6349C86103E0624828
:1009600080696149C86109B0BDE8F08F70B58EB08B
:10097000342101A805F0D6F8A5208DF804005A20EE
:100980008DF8050026208DF8060001208DF807005F
:100990008DF808005448C088C0B28DF8090052484C
:1009A000C08800128DF80A004F49886905F045FBA0
:1009B00084B2E0B28DF80B0020128DF80C004A4989
:1009C000C86905F03AFB84B2E0B28DF80D00201240
:1009D0008DF80E0044488088C0B28DF80F00424860
:1009E000808800128DF810003F480668F0B28DF83C
:1009F0001100300A8DF81200300C8DF81300300E03
:100A00008DF81400002512E03748083030F8150042
:100A1000C1B26800113001AA11543348083030F8CF
:100A200015000012690012315054681CC5B2052D22
:100A3000EADB2D48808AC0B28DF81F002A48808AE0
:100A400000128DF820002848408AC0B28DF821009D
:100A50002548408A00128DF822002348808CC0B2BD
:100A60008DF823002048808C00128DF824002B483C
:100A7000006805F0E2FA84B2E0B28DF82500201299
:100A80008DF826001849086A05F0D7FA84B2E0B25A
:100A90008DF8270020128DF82800252101A801F0EB
:100AA0004FF98DF82900262201A9012002F0DFF874
:100AB0000EB070BD10B50C4B1A8933E00A4B1968A3
:100AC000188902F16403984203DD0123074C237067
:100AD00029E0B1F5FA7F25D90223044C2370024B9B
:100AE000DB880F4C23801EE07008002006000020E9
:100AF0001400002000007A44FCA9F1D24D62503F5E
:100B0000000059400000F03F0800002000408F40E6
:100B10000000144004000020A00800200C00002069
:100B200010000020CAE700BF10BD2DE9FF5F4FF0A5
:100B300000094FF07E5BF948B0F8088001260BE011
:100B4000F648083030F81600404503DAF34808301C
:100B500030F81680701C86B2052EF1DBF048007864
:100B600002287ED1ED480068B0F5FA7F03D340F645
:100B7000B830804575DC4FF001090020E949086074
:100B8000E948007801286DD10A2001F0B8FE4046FE
:100B9000FFF7F7FBE5490880E049086A05F078FAB5
:100BA0000022E34BCDE9000105F03BF904460D4678
:100BB000E048006805F06CFA22462B46CDE90201B8
:100BC00005F07CFA23D2D548D0F820A0DA4909886C
:100BD000D64A1288881A05F004FA05460146D54817
:100BE000006805F039F80446D44904F0FFFFCB490A
:100BF00008620846016A504605F02EF88346C74948
:100C0000086A05F01AFA84B2204600F05DFA002660
:100C100097E0CB490988491ECA4A02EBC1014988BD
:100C2000C54A1288501A05F0DCF95946029004F0C2
:100C3000DDFF0546C048008805F0DCF92946039031
:100C400004F0CEFF044605F0F8F980B2B0420DDDA5
:100C5000BB480088401EBB4901EBC0004068BA4950
:100C600001E081E07DE021F8160068E0B54949889F
:100C7000B14A1288501A05F0B4F95946029004F0AE
:100C8000B5FF0546AC48008805F0B4F92946039045
:100C900004F0A6FF044605F0D0F980B2B04205DAB0
:100CA000A8484068A84921F8160048E0002741E01C
:100CB000A44901EBC70149889F4A1288501A05F0E0
:100CC00090F95946029004F091FF05469A48008831
:100CD00005F090F92946039004F082FF044605F0E0
:100CE000ACF980B2B04223DB964A791C02EBC10119
:100CF0004988914A1288501A05F073F959460290B2
:100D000004F074FF05468C48008805F073F9294605
:100D1000039004F065FF044605F08FF980B2B042FD
:100D200006DC884800EBC7004068874921F81600B8
:100D3000781C87B282480088401EB842B8DC701C1C
:100D400086B2B6F57A7F7FF764AF00207C490880D1
:100D500040F2E9317C4800F078F9002072490870CF
:100D600002E00A20794908806D48007801280FD1F7
:100D70006A48008941F25E01884209DD6748808A3D
:100D8000401C66498882888A00F0B5F94FF0010955
:100D9000B9F1010F02D1002061490870484604B042
:100DA000BDE8F09F2DE9F04F85B04FF07E596449C2
:100DB000088800EBD0714FEA61084FE0614830F8D5
:100DC0003800142800DA45E05E4A02EBC802518878
:100DD0005C4A32F8380000F049F90490484605F0C2
:100DE00057F904460D46049805F01AF9CDE90201B9
:100DF000544901EBC801486805F012F90646002283
:100E0000534B05F00EF8CDE90001DDE9022305F0B2
:100E100079F8824622462B4605F050F919D20498FB
:100E200005F0FEF806460F46464901EBC801486842
:100E300005F0F6F80022464BCDE9020104F0F1FF7F
:100E4000824632463B4605F05DF8044605F04AF915
:100E5000814600BF08F101001FFA80F83848008879
:100E60008045ABDB4FF0000814E04146FA2000F06B
:100E7000FDF8064605F0BEF80546494604F0B6FE04
:100E8000044605F0DAF8304921F8180008F10100AD
:100E90001FFA80F8B8F57A7FE7DD40F2E9312A4899
:100EA00000F0D3F805B0BDE8F08F70B540F2E93539
:100EB000002406E04FF47A70234921F81400601CE6
:100EC00084B2AC42F6DB29461F4800F0BEF870BD84
:100ED00070B520A005F044FA21A005F041FA0024E5
:100EE0000EE02146FA2000F0C1F8054621461DA07B
:100EF00005F036FA29461CA005F032FA601C84B2CF
:100F0000B4F57A7FEDDD16A005F02AFA14A005F0FD
:100F100027FA13A005F024FA70BD00007008002025
:100F20000600002014000020010000201200002014
:100F30000000E03F0C0000201000002000007A4478
:100F400004000020A0080020E8270020080000205E
:100F50000000F03F52695F5368656574000000004F
:100F6000090A0000256409002564090A0000000040
:100F700070B514A005F0F4F9AFF21C0005F0F0F91B
:100F800000240FE02046FFF7D7FA05462146AFF2CE
:100F90002C0005F0E5F92946AFF2340005F0E0F940
:100FA000601C84B2B4F57A7FECDDAFF24C0005F042
:100FB000D7F9AFF2540005F0D3F9AFF25C0005F0B9
:100FC000CFF970BD4F43565F534F435F536865651C
:100FD0007400000070B5012000F0F6F80446B4F586
:100FE0007A6F01DD002070BDA4F51670322100FB80
:100FF00001F52846F7E72DE9F0410446204600F0C8
:10100000E8F9022000F0E0F80746042000F0DCF8E0
:1010100006463A463146204600F0FAF9054628468B
:10102000BDE8F081FA20704770B5514D284601F0B7
:1010300029F8044600BF204670BD70B504464C4DEB
:101040002146284600F0F0FF70BD70B504460D46FD
:101050002A462146474800F0F7FFFFF7E5FF06461E
:1010600046F001063046FFF7E8FF70BD2DE9F0417C
:1010700004460D463F48022101FB0507C82C03DB4F
:10108000384600F0FFFF06463046BDE8F08170B5F7
:1010900005460E46FFF7C8FF044644F0020420460A
:1010A000FFF7CBFF70BD2DE9D04381460022324BC4
:1010B0002046294604F0B5FE064604F0D2FF1FFA8A
:1010C00080F84046BDE8D08370B5044621462B48E1
:1010D00000F0AAFFFFF7A8FF054645F004052846E3
:1010E000FFF7ABFF70BD70B5244C204600F0CAFF7F
:1010F0000546284670BD70B504462146204800F0DC
:1011000093FFFFF791FF054645F008052846FFF7D6
:1011100094FF70BD10B51A4800F0B4FF0446204695
:1011200010BD0146C1F57A72164B33F812007047B4
:1011300030B5044600224FF4806312E0D01800EB73
:10114000D075C5F34F010F4830F81100A04201DA05
:101150000B4600E00A46934202DD981A012800D1AE
:1011600000E0EBE700BFC1F57A7080B230BD00004F
:10117000007803080008030800002440006003080A
:10118000006803081800002070B504460D46E1B25F
:10119000054804F0B8F900BF4021034804F021FAE3
:1011A0000028F9D0204670BD0038014010B58021DC
:1011B0003A4801F05BF801228021384801F095F8A7
:1011C000012001F0AFF810BD38B50446002280219F
:1011D000324801F08AF81E2001F075FB012C04D181
:1011E0009421012001F0ABF816E0022C04D1D421A7
:1011F000012001F0A4F80FE0032C04D1A421012068
:1012000001F09DF808E0042C04D1E421012001F054
:1012100096F801E0002038BD0021012001F08FF890
:101220008DF800000021012001F089F88DF80100FF
:101230000021012001F083F88DF80200FF21012038
:1012400001F07DF8FF21012001F079F801228021D1
:10125000124801F04AF89DF800000121B1EBE03F8F
:1012600009D09DF80100B1EBE03F04D09DF80200E9
:10127000B1EBE03F02D14FF6FF750CE09DF80000A6
:1012800040029DF8011040EA41009DF8021040EA3A
:10129000E110C0F30F152846BDE700000010014023
:1012A000F8B50725012002F01FF8002220210120B7
:1012B00002F023F801222421104602F01EF8072232
:1012C0002521012002F019F801236A46372118462A
:1012D00002F020F89DF80000C009BF4988719DF810
:1012E0000000C0F3801008709DF80000C0F34010AB
:1012F000C8719DF80000C0F30010487001236A46D1
:101300003821184602F006F8002416E09DF8000087
:10131000284100F00100B049891DA21C8854681EB4
:10132000C5B29DF80000284100F001008A1FA11CF1
:101330005054681EC5B2601CC4B2042CE6DB012305
:101340006A463B21184601F0E5FF9DF8000000F0D9
:101350000100A14908769DF80000C0F340004876DE
:101360009DF80000C0F38000887601236A46302192
:10137000184601F0CFFF9DF8000000F00F009649DD
:10138000C8769DF80000000908771126002416E0B1
:1013900046F0200101236A46184601F0BBFF9DF884
:1013A000000000F00F008C490C3108559DF800003A
:1013B0000009891D0855701CC6B2601CC4B2062CF9
:1013C000E6DBF8BD10B516222121012001F095FFC2
:1013D00010BD70B50546012D01D1102412E0022D7B
:1013E00001D111240EE0032D01D112240AE0042DB5
:1013F00001D1132406E0052D01D1142402E0062DAD
:1014000000D1152422462121012001F076FF70BD74
:101410002DE9F74F92B083464FF033316F48CDE955
:101420000C10ABF1010000F0FF086B4810F8080049
:1014300070B969490C3111F8080004F0F1FD684AEF
:10144000684BCDE90A0104F0ECFC04460D4610E0BF
:1014500061490C3111F80810C1F11001484204F043
:10146000CEFD5F4A5F4BCDE90A0104F0DAFC044689
:101470000D465948801D10F8080070B956491231C0
:1014800011F8080004F0CCFD554A564BCDE90A018D
:1014900004F0C7FC06460F4610E04F49123111F820
:1014A0000810C1F11001484204F0A9FD4C4A4D4B0F
:1014B000CDE90A0104F0B5FC06460F464648007E19
:1014C00020B94548C07E4FFA80F906E04248C07E08
:1014D000C0F1100040424FFA80F93F48807E40B989
:1014E0003D48007F3C49497E00EB01104FFA80FAED
:1014F0000AE03948007F3849497E00EB0110C0F10D
:10150000200040424FFA80FA149804F089FDCDE99A
:101510000601504604F073FD314A324BCDE9020119
:1015200004F07FFCCDE90401DDE9062304F0EAFCC8
:10153000CDE90A01484604F062FD294A294BCDE96C
:10154000040104F06EFC0022274BCDE9060104F0F3
:10155000C3FBCDE90801DDE90A2304F0BDFBCDE9B9
:101560000E0122462B4600201F4904F0B5FBCDE9B1
:101570000801139804F054FDCDE90001DDE90E23C4
:1015800004F04FFC32463B46CDE9020104F0A4FBD7
:10159000CDE90401DDE90C2304F0B4FCCDE906013A
:1015A000DDE9082304F03DFCCDE90A0104F059FD12
:1015B00080B21090109815B0BDE8F08F10B5802261
:1015C0002521012001F099FE10BD10B50022202137
:1015D000012001F092FE10BDBA2F00203333E33F0B
:1015E000FCA9F1D24D62503F0000F03F38B50446EF
:1015F00014F0010F10D00121082002F0FAFD102094
:101600008DF8030003208DF802002020ADF80000C3
:101610006946DB4802F03AFBC4F3400080B1012187
:10162000082002F0E6FD10208DF8030003208DF85D
:1016300002004020ADF800006946D14802F026FBC8
:10164000C4F3800080B10121082002F0D2FD1020F7
:101650008DF8030003208DF802008020ADF8000013
:101660006946C74802F012FBC4F3C00088B10121EB
:10167000102002F0BEFD10208DF8030003208DF82D
:1016800002004FF40060ADF800006946BD4802F06A
:10169000FDFAC4F3401088B10121102002F0A9FD29
:1016A00010208DF8030003208DF802004FF48050C5
:1016B000ADF800006946B34802F0E8FAC4F3401000
:1016C00088B10121102002F094FD10208DF8030054
:1016D00003208DF802004FF40050ADF80000694679
:1016E000A84802F0D3FAC4F3801088B10121102079
:1016F00002F07FFD10208DF8030003208DF802001A
:101700004FF48040ADF8000069469E4802F0BEFAF2
:10171000E00911D00121102002F06BFD10208DF89E
:10172000030003208DF802004FF48040ADF8000064
:101730006946944802F0AAFA38BD10B5044614F080
:10174000010F03D020218E4802F04DFBC4F340006E
:1017500018B140218A4802F046FBC4F3800018B15A
:101760008021874802F03FFBC4F3C00020B14FF452
:101770000061844802F037FBC4F3001020B14FF43D
:101780008051804802F02FFBC4F3401020B14FF489
:1017900000517C4802F027FBC4F3801020B14FF4C5
:1017A0008041784802F01FFBE00904D04FF48041EB
:1017B000744802F018FB10BD10B5044614F0010F78
:1017C00003D020216E4802F00CFBC4F3400018B196
:1017D00040216B4802F005FBC4F3800018B1802162
:1017E000674802F0FEFAC4F3C00020B14FF4006174
:1017F000644802F0F6FAC4F3001020B14FF48051AF
:10180000604802F0EEFAC4F3401020B14FF40051EA
:101810005C4802F0E6FAC4F3801020B14FF4804136
:10182000584802F0DEFAE00904D04FF480415548F0
:1018300002F0D7FA10BD70B5054615F0010F0FD0B4
:1018400020214F4802F0C0FA0446012C04D1202187
:101850004B4802F0C8FA03E02021494802F0C1FADF
:10186000C5F3400078B14021454802F0ADFA044686
:10187000012C04D14021424802F0B5FA03E0402196
:101880003F4802F0AEFAC5F3800078B180213C48B1
:1018900002F09AFA0446012C04D18021384802F063
:1018A000A2FA03E08021364802F09BFAC5F3C0009B
:1018B00088B14FF40061334802F086FA0446012CE7
:1018C00004D1C1022F4802F08EFA04E04FF4006107
:1018D0002C4802F086FAC5F3001088B14FF480510D
:1018E000284802F071FA0446012C04D1010325486E
:1018F00002F079FA04E04FF48051224802F071FAC4
:10190000C5F3401088B14FF400511E4802F05CFA54
:101910000446012C04D141031A4802F064FA04E0A1
:101920004FF40051174802F05CFAC5F3801088B1FB
:101930004FF48041134802F047FA0446012C04D1C9
:101940008103104802F04FFA04E04FF480410D4843
:1019500002F047FAE80911D04FF48041094802F03B
:1019600033FA0446012C04D18103064802F03BFA05
:1019700004E04FF48041034802F033FA70BD0000E8
:10198000000C0140001001403D48006870470146CE
:101990003C4A3B4B1B68D018394A12680A44384B02
:1019A0001A601A46126842F210739A4201D900BFB7
:1019B000FEE77047F0B503460020002411E031F83F
:1019C00014500646471CB8B29D55904200D10AE01B
:1019D00031F814502D0A0646471CB8B29D55651CB7
:1019E000ACB29042EBDB00BFF0BDF0B50346002087
:1019F000002427E051F824500646471CB8B29D55F4
:101A0000904200D120E051F82450C5F30725064646
:101A1000471CB8B29D55904200D115E051F82450B2
:101A2000C5F307450646471CB8B29D55904200D104
:101A30000AE051F824502D0E0646471CB8B29D55B9
:101A4000651CACB29042D5DB00BFF0BD10B50A46B4
:101A5000014600240C60D3780C6804EB03640C602E
:101A600093780C6804EB03440C6053780C6804EB27
:101A700003240C6013780C681C440C6010BD00003B
:101A800018080020D72F00208168491C8160D0E908
:101A90000121914203D3D0E90121891A8160704765
:101AA00070B504460D460020A060E06065602846E1
:101AB000FFF76DFF206070BD00218160C16070473D
:101AC00010B5044600206060206804F013FD10BDCE
:101AD00030B503460D46D3E9020144185868A042C8
:101AE00001D85868241A186805555968D86888427A
:101AF00004D11846FFF7C8FF012030BDD868401C4C
:101B0000D8600020F9E72DE9F04105460E4617465A
:101B10004FF00008E86808B94FF00108002405E01C
:101B2000315D2846FFF7D4FF601C84B2BC42F7DB6E
:101B30004046BDE8F08130B503460C46D86858B140
:101B400099681868455C1846FFF79EFFD868401EE4
:101B5000D8602570012030BD0020FCE738B505466F
:101B60000C4669462846FFF7E6FF012804D19DF898
:101B700000002070012038BD0020FCE72DE9F04175
:101B800004460D46E06886B2E06810B90020BDE862
:101B9000F081D4E9020108446168884207D2A36851
:101BA0002068C1182846E26803F0A3FF12E0D4E9D8
:101BB0000103C21A2068C118284603F09AFF67681B
:101BC000E368DB1BA768DA196368DB1B5819216817
:101BD00003F08FFF0020E060A0603046D7E710B52B
:101BE00002460B46D06898420AD99068C1185068DE
:101BF000884201D85068091A1068445C204610BD1C
:101C00000020FCE710B504466820FFF7C0FE206006
:101C10000020A080012010BD10B502469088401C15
:101C20001A2390FBF3F403FB140090809388106850
:101C300040F82310012010BD30B5024600230DE00E
:101C40009088401C1A2490FBF4F504FB150090804A
:101C50009488106840F82410581CC3B21A2BEFDB8C
:101C6000012030BD10B503460C469888801A01B299
:101C7000002902DA01F11A0001B2186840F8214087
:101C800010BD02460B469088C01A01B2002902DA44
:101C900001F11A0001B2106850F82100704710B528
:101CA00004466820FFF773FE20600020A08010BD6E
:101CB00010B502469088401C1A2390FBF3F403FBF6
:101CC000140090809388106840F8231010BD10B560
:101CD00003460C469888801A01B2002902DA01F105
:101CE0001A0001B2186840F8214010BD02460B46A8
:101CF0009088C01A01B2002902DA01F11A0001B27B
:101D0000106850F8210070472DE9F04180460E46DA
:101D100000210C460D46002700BF06E038F81700EA
:101D2000041945F10005781C87B2B742F6DB32464C
:101D300000232046294603F0A9FE80B2BDE8F081C9
:101D400010B502460B460021002000BF04E0545CA1
:101D50000444E0B24C1CE1B29942F8DB10BD70B50E
:101D600003460024A5250D705A254D70DD688D7041
:101D70000D784E7835448E783544ECB2002009E079
:101D80001D682E5CC51C4E551D682D5C2544ECB2AB
:101D9000451CE8B2384D2D78A842F1DBC51C4C55E6
:101DA000051D158070BD2DE9F0438046894600244D
:101DB000002600255BE030480078052800DA57E06F
:101DC00000240BE02D48005DA52805D12B49601C9F
:101DD000085C5A2800D106E0601CC4B2264800788E
:101DE000401EA042EEDC00BF23480078001B2249C1
:101DF0000870002605E0A0192049085C8855701C71
:101E0000C6B21D4800788642F5DB1B4800780228E0
:101E100001DD1A488578E81EC5B217480178E81C2C
:101E2000814224DBA81CC1B21448FFF789FFE91CDA
:101E3000124A515C88420DD1002706E0F81C0F4978
:101E4000085C08F80700781CC7B2681EB842F5DCC9
:101E5000A9F80000002405E00849601C085C08554A
:101E6000601CC4B204480078401EA042F4DCA2E723
:101E700000BFBDE8F08300003C0800203857002078
:101E80002DE9FC5F04460E46174604EB8708002048
:101E90000190814600250120009001F0C6FBA8EBCF
:101EA00004000190352001F06AFE4FF0040B00BFE2
:101EB00007E0012101FB094001F0FDFB834609F128
:101EC00001090198814502D2BBF1040FF1D02546EA
:101ED0004FF0000A09E050460AF1010A56F82010B6
:101EE000284601F0BFFC83462D1D454502D2BBF1BB
:101EF000040FF0D025464FF0000A0DE02A68504646
:101F00000AF1010A56F82000824204D00020009015
:101F10000120BDE8FC9F2D1D454502D200980028F8
:101F2000ECD10020F5E72DE9F04103460C4603EB28
:101F30008205012600210027194606E0D1F800801D
:101F400038467F1C44F82080091DA94201D2002E8A
:101F5000F4D10020BDE8F08170B504460D46164668
:101F6000324629462046FFF78BFF70BD70B5044608
:101F70000D461646324629462046FFF7D4FF70BD6F
:101F800070474248006940F080004049086170474E
:101F90003E48C16811F0010F01D00120704711F0D7
:101FA000040F01D00220F9E711F0100F01D0032037
:101FB000F4E70020F2E770B5044600BFFFF7E8FF42
:101FC0000546012D00D006E0012000F07CFC601EDB
:101FD00084B2002CF2D100BF04B9FF25284670BDA1
:101FE00070B50546002445F6FF70FFF7E4FF044690
:101FF000C4B92648006940F0020024490861084637
:102000004561006940F04000086145F6FF70FFF748
:10201000D2FF0446012C05D01C48006920F00200C4
:102020001A490861204670BD70B504460D4601F09E
:10203000FCFA352001F0A3FD204601F03CFB2946C7
:10204000204601F043FC70BD2DE9F04105460E46E7
:10205000174601F0EAFA352001F091FD284601F01B
:102060002AFB0020044609E036F81410022202FB85
:10207000045001F02BFC601C80B20446BC42F3DB30
:10208000BDE8F0810146088870470000002002404A
:1020900000B585B001216F4802F0B8F8C020ADF856
:1020A000000003208DF802001C208DF80300694613
:1020B000694801F0EBFD0020ADF808004BF6FF7019
:1020C000ADF80A003020ADF80C004FF48060ADF898
:1020D0000E000001ADF810006048019001A96048B1
:1020E00003F0F1FA01215E4803F06BFB01215C482B
:1020F00003F0A3FB05B000BD70B506460D461446BF
:1021000000BF4FF40031564803F072FC0028F8D1AC
:102110000121534803F091FB0121514803F075FB65
:1021200000BF50494E4803F041FC0028F9D070062A
:10213000010E01224A4803F0C1FB00BF4949491C76
:10214000474803F033FC0028F8D018E0012C07D1F1
:102150000021434803F071FB0121414803F061FB7A
:1021600000BF40493F313E4803F020FC0028F8D032
:102170003B4803F09FFB28706D1C601E84B2002C4E
:10218000E4D10121364803F058FB70BD70B5054617
:102190000E4657E0002406E0601C84B242F2107044
:1021A000844200DD06E04FF400312D4803F020FCAE
:1021B0000028F1D100BF0121294803F026FB06E0E9
:1021C000601C84B242F21070844200DD05E02549B3
:1021D000234803F0EBFB0028F2D000BF6806010E95
:1021E00000221F4803F06AFB06E0601C84B242F242
:1021F0001070844200DD05E01B49194803F0D6FB4E
:102200000028F2D000BF3146154803F051FB06E02C
:10221000601C84B242F21070844200DD06E0124974
:10222000891C0F4803F0C2FB0028F1D000BF42F226
:102230001070844205DD0A4803F02CFAFFF728FFEE
:1022400000E000E0A6E700BF0121054803F0E9FA3D
:1022500070BD000008002000000C0140A0860100B5
:1022600000540040010003008200070038B5044616
:102270000D462648844204D10121042001F0B9FF13
:1022800026E02348844204D10121082001F0B1FF57
:102290001EE02048844204D10121102001F0A9FF52
:1022A00016E01D48844204D10121202001F0A1FF45
:1022B0000EE01A48844204D10121402001F099FF28
:1022C00006E01748844203D10121802001F091FFEC
:1022D00010208DF8030003208DF80200ADF80050A7
:1022E0006946204601F0D2FC38BD70B505460E4661
:1022F000144624B93146284601F075FD03E0314605
:10230000284601F06EFD70BD7047000000080140D6
:10231000000C014000100140001401400018014071
:10232000001C014010B50446012C02D100F016F843
:1023300003E0022C01D0012010BD0120FCE770B5A4
:1023400004460D460026012C04D1284600F0DDF895
:10235000064600E000BFF0B270BD000000B587B0D7
:10236000012141F2040001F044FF0121102001F09D
:1023700040FF10208DF81B0003208DF81A008020EC
:10238000ADF8180006A9964801F080FC10208DF8E1
:102390001B0003208DF81A004020ADF8180006A994
:1023A0008F4801F073FC10208DF81B0003208DF87E
:1023B0001A000420ADF8180006A9894801F066FC4F
:1023C00010208DF81B0003208DF81A004FF40070C8
:1023D000ADF8180006A9824801F058FC10208DF8CD
:1023E0001B0003208DF81A001020ADF8180006A974
:1023F0007B4801F04BFC10208DF81B0003208DF86A
:102400001A002020ADF8180006A9754801F03EFC1E
:1024100018208DF81B0003208DF81A002020ADF83D
:10242000180006A96F4801F031FC18208DF81B0038
:1024300003208DF81A008020ADF8180006A969481D
:1024400001F024FC04208DF81B004020ADF818009A
:1024500006A9644801F01AFC0020ADF804004FF40E
:102460008270ADF806000020ADF808000220ADF83B
:102470000A000120ADF80C004002ADF80E0010205B
:10248000ADF810000020ADF812000720ADF81400E0
:1024900001A9554801F03EFF0121534801F0DDFF3D
:1024A00007B000BD014605E0002001E0421CD0B2AB
:1024B000FA28FBDB0A00A1F1010399B2F4D17047BD
:1024C00070B50446002500BF0221474802F04EF8CF
:1024D0000028F9D000252146434801F0F4FF70BDE3
:1024E00010B5002406E02046641C4049884201D90A
:1024F000002010BD01213C4802F038F80028F2D03D
:10250000394801F0E2FFC0B2F3E710B5044600BF5E
:102510000221354802F02AF80028F9D02146324835
:1025200001F0D1FF00BF01212F4802F01FF8002861
:10253000F9D02D4801F0C9FFC0B210BD70B50546F5
:102540000C46012D0AD124B98021254801F04BFC0D
:1025500045E08021224801F044FC40E0022D0AD1F0
:1025600024B940211E4801F03EFC38E040211C48BF
:1025700001F037FC33E0032D0AD124B904211848B7
:1025800001F031FC2BE00421154801F02AFC26E083
:10259000042D0BD124B9E901114801F024FC1EE0FF
:1025A0004FF400710E4801F01CFC18E0052D0AD113
:1025B00024B910210A4801F016FC10E01021084847
:1025C00001F00FFC0BE0062D09D124B920210448AD
:1025D00001F009FC03E02021014801F002FC70BD7C
:1025E0000010014000080140003001408096980032
:1025F000704700BFFEE700BFFEE700BFFEE700BF79
:10260000FEE770477047704710B500F084F910BDC1
:1026100008B540F22551864802F0F9FF01280CD197
:10262000834802F074FFC0B200908248006820B175
:10263000804801689DF80000884740F227717C4877
:1026400002F0E5FF012814D17A48806988B1794801
:10265000816968468847012805D19DF800107448B3
:1026600002F051FF05E0002240F22771704802F0AD
:10267000E6FE08BD08B540F225516F4802F0C7FFDD
:1026800060B16D4802F043FFC0B2009069484068F5
:1026900020B1684841689DF80000884740F22771E2
:1026A000654802F0B4FFA0B16248C06988B16148D2
:1026B000C16968468847012805D19DF800105E4829
:1026C00002F021FF05E0002240F227715A4802F093
:1026D000B6FE08BD08B540F22551584802F097FFF4
:1026E00060B1564802F013FFC0B2009051488068B4
:1026F00020B1504881689DF80000884740F227715A
:102700004E4802F084FFA0B14A48006A88B14948A7
:10271000016A68468847012805D19DF8001047489E
:1027200002F0F1FE05E0002240F22771434802F07A
:1027300086FE08BD08B540F22551414802F067FF0A
:1027400060B13F4802F0E3FEC0B200903948C06873
:1027500020B13848C1689DF80000884740F22771D1
:10276000374802F054FFA0B13248406A88B131487E
:10277000416A68468847012805D19DF80010304815
:1027800002F0C1FE05E0002240F227712C4802F061
:1027900056FE08BD10B50121880702F061FD90B119
:1027A0000121880702F06DFD00F03AF900F029F9E7
:1027B000044600F03EF9844205D3002000F01EF9E3
:1027C0001C49486B804710BD10B501211D4802F01F
:1027D00047FD90B101211B4802F053FD00F094F930
:1027E00000F08FF9044600F024F9844205D300205C
:1027F00000F084F90F49886B804710BD10B50121A6
:10280000114802F02DFD90B101210F4802F039FD71
:1028100000F0EEF900F0E9F9044600F0F2F9844224
:1028200005D3002000F0DEF90249C86B804710BDD7
:1028300000380140E85600200044004000480040B5
:10284000004C0040000400400008004010B5002883
:1028500007DA0A07120E344B00F00F04241F1A5532
:1028600003E00A07120E314B1A5410BD10B5304860
:1028700000683049B0FBF1F4B4F1807F01D301204E
:1028800011E024F07F40401E4FF0E02148610F210D
:102890004FF0FF30FFF7DAFF00204FF0E0218861B2
:1028A00007200861002008B100BFFEE74FF0E020DC
:1028B000006920F001004FF0E02108610021481E6E
:1028C000FFF7C4FF10BD1C4908604FF0E021096903
:1028D00041F001014FF0E022116100BF1649096883
:1028E0000029FBD1704710B50346002404E04FF4E3
:1028F0007A70FFF7E8FF641C9C42F8D310BD30B536
:102900000446002504E04FF47A70FFF7ECFF6D1CDD
:10291000A542F8D330BD0848006820B106480068D9
:10292000401E05490860704718ED00E000E400E033
:102930004008002040420F001C0800201FB504463C
:102940000121084601F062FC4FF0804001F044FE96
:1029500040F2E730ADF808004720ADF80400002051
:10296000ADF80A00ADF8060001A94FF0804001F073
:1029700007FF4FF4806000F0BDFD1C208DF80000C3
:1029800001208DF8010000208DF8020001208DF853
:102990000300684600F0B3FD0121880702F05DFCEA
:1029A00001221146900702F0BCF90121880702F0CC
:1029B0009DF90021012001F029FC00201E4908603A
:1029C0001E48046000201E4908601FBD10B500208D
:1029D000194908600121084601F018FC0121880707
:1029E00002F084F910BD10B500214FF0804002F0D4
:1029F0007DF90021012001F009FC10BD0E4908609D
:102A000070470D48006870470D49086070470C48D2
:102A1000006870470A480068401C09490860704710
:102A200005480068401C0449086070470549486330
:102A300070470248006870472008002024080020E2
:102A400028080020E85600201FB504460121022076
:102A500001F0DCFB324801F0BFFD40F2E730ADF899
:102A600008004720ADF804000020ADF80A00ADF8DA
:102A7000060001A92A4801F083FE4FF4806000F0AF
:102A800039FD1D208DF8000003208DF80100002085
:102A90008DF8020001208DF80300684600F02FFD3C
:102AA00001211F4802F0D9FB012211461C4802F007
:102AB00038F901211A4802F019F90021022001F029
:102AC000A5FB002017490860174804601FBD10B51A
:102AD0000020144908600121022001F097FB012128
:102AE0000F4802F003F910BD10B500210C4802F0A8
:102AF000FDF80021022001F089FB10BD09490860A2
:102B0000704708480068704706480068401C05493F
:102B1000086070470549886370470348006870473C
:102B2000000400402C08002030080020E856002057
:102B30001FB504460121042001F068FB324801F072
:102B40004BFD40F2E730ADF808004720ADF8040037
:102B50000020ADF80A00ADF8060001A92A4801F0EE
:102B60000FFE4FF4806000F0C5FC1E208DF80000C1
:102B700002208DF8010000208DF8020001208DF860
:102B80000300684600F0BBFC01211F4802F065FB12
:102B9000012211461C4802F0C4F801211A4802F033
:102BA000A5F80021042001F031FB0020174908603E
:102BB000174804601FBD10B50020144908600121AA
:102BC000042001F023FB01210F4802F08FF810BD13
:102BD00010B500210C4802F089F80021042001F012
:102BE00015FB10BD09490860704708480068704728
:102BF00006480068401C0549086070470549C863DD
:102C000070470348006870470008004034080020FF
:102C100038080020E856002070B504460D461646D8
:102C2000012C09D1284600F074F8304600F0FDF878
:102C3000304600F001F919E0022C06D1284600F0D8
:102C400031F9304600F0B1F910E0032C06D12846E6
:102C500000F0DEF9304600F05AFA07E0042C05D106
:102C6000284600F08FFA304600F014FB70BD70B5B6
:102C700004460D461646012C04D13146284600F084
:102C8000E3F813E0022C04D13146284600F096F90F
:102C90000CE0032C04D13146284600F041FA05E04F
:102CA000042C03D13146284600F0FDFA70BD70B502
:102CB00004460D46012C03D1284600F01DF810E013
:102CC000022C03D1284600F08EF90AE0032C03D130
:102CD000284600F03AFA04E0042C02D1284600F01D
:102CE000F7FA70BD6349644A1278885462490978DA
:102CF000491C614A1170704760490860704710B5FF
:102D0000044621465E48FEF729FF10BD5B498861F5
:102D1000704710B588B004460121880301F069FAB4
:102D20000121042001F065FA4FF40070ADF81C0099
:102D300003208DF81E0018208DF81F0007A95148A8
:102D400000F0A4FF4FF48060ADF81C0048208DF81F
:102D50001F0007A94B4800F099FF03940020ADF82D
:102D60001000ADF81200ADF81400ADF818000C20FA
:102D7000ADF8160003A9444802F0C9FA684602F00B
:102D80004CFB6946404802F037FB4FF4806000F08E
:102D9000B1FB25208DF8080000208DF809008DF882
:102DA0000A0001208DF80B0002A800F0A8FB012208
:102DB00040F22551344802F042FB0121324802F032
:102DC00032FBAFF2C500FFF7A1FFAFF2E700FFF75C
:102DD00093FF08B010BD1FB5044600940020ADF865
:102DE0000400ADF80600ADF80800ADF80C000C20AA
:102DF000ADF80A006946244802F089FA1FBD38B5CB
:102E000004468021204802F0ECFB01280CD16846E2
:102E1000A0479DF800101C4802F075FB012240F20B
:102E20002771194802F00BFB38BD10B50446214646
:102E30001348FEF735FE10BD05210F4A117070478B
:102E40000F4870471148704770B505460C4600267C
:102E50000CB9002070BD224629460948FEF753FEF2
:102E60000646012E03D1AFF26910FFF7C8FF01201B
:102E7000F0E70000385700203C080020E85600200A
:102E8000385900200008014000380140485900200E
:102E900010B5044621465548FEF760FE10BD544962
:102EA000C861704710B588B004460121480401F09C
:102EB000ADF90121042001F09CF90420ADF81C00BB
:102EC00003208DF81E0018208DF81F0007A949481F
:102ED00000F0DCFE0820ADF81C0048208DF81F0033
:102EE00007A9444800F0D2FE03940020ADF810007A
:102EF000ADF81200ADF81400ADF818000C20ADF8D4
:102F0000160003A93C4802F002FA684602F085FA6E
:102F10006946394802F070FA26208DF8080005202D
:102F20008DF8090000208DF80A0001208DF80B00B3
:102F300002A800F0E4FA01212F4802F074FA0122FD
:102F400040F225512C4802F07AFAAFF2BB00FFF7AD
:102F5000A6FF08B010BD1FB5044600940020ADF8D0
:102F60000400ADF80600ADF80800ADF80C000C2028
:102F7000ADF80A006946204802F0C9F91FBD38B50E
:102F8000044680211C4802F02CFB01280CD1684625
:102F9000A0479DF80010184802F0B5FA012240F24F
:102FA0002771154802F04BFA38BD10B5044621468A
:102FB0000E48FEF775FD10BD0C48704770B505460C
:102FC0000C4600260CB9002070BD22462946074851
:102FD000FEF799FD0646012E03D1AFF24B10FFF725
:102FE000CEFF0120F0E702494860704758590020A1
:102FF000E8560020000801400044004010B5044697
:1030000021465748FEF7AAFD10BD56490862704791
:1030100010B588B004460121880401F0F7F80121B9
:10302000082001F0E6F827208DF8080001208DF82F
:10303000090000208DF80A0001208DF80B0002A87D
:1030400000F05DFA4FF48060ADF81C0003208DF8AD
:103050001E0018208DF81F0007A9434800F016FE37
:103060004FF40060ADF81C0048208DF81F0007A940
:103070003D4800F00BFE03940020ADF81000ADF8C1
:103080001200ADF81400ADF818000C20ADF81600D1
:1030900003A9364802F03BF9684602F0BEF96946DA
:1030A000324802F0A9F90121304802F0BCF9AFF230
:1030B000B300FFF7AAFF08B010BD1FB50446009487
:1030C0000020ADF80400ADF80600ADF80800ADF83A
:1030D0000C000C20ADF80A006946244802F017F9EC
:1030E0001FBD38B504468021204802F07AFA012835
:1030F0000CD16846A0479DF800101C4802F003FA66
:10310000012240F22771194802F099F938BD10B533
:10311000044621461248FEF7C3FC10BD1048704714
:1031200070B505460C4600260CB9002070BD22463D
:1031300029460B48FEF7E7FC0646012E03D1AFF205
:103140004310FFF7CEFF0120F0E710B50446054815
:103150008460012240F22551044802F070F910BD4C
:1031600068590020E8560020000C0140004800404B
:1031700010B5044621465848FEF7F0FC10BD5749EB
:103180004862704710B588B004460121C80401F0B8
:103190003DF80121102001F02CF84FF48060ADF8CB
:1031A0001C0003208DF81E0018208DF81F0007A9B1
:1031B0004B4800F06BFD4FF40060ADF81C0003209D
:1031C0008DF81E0048208DF81F0007A9444800F024
:1031D0005DFD03940020ADF81000ADF81200ADF8CD
:1031E0001400ADF818000C20ADF8160003A93D48F6
:1031F00002F08DF8684602F010F96946394802F08D
:10320000FBF834208DF8080004208DF80900002018
:103210008DF80A0001208DF80B0002A800F06FF96C
:103220000121304802F0FFF8012240F225512D48DB
:1032300002F005F9AFF2C700FFF7A1FF08B010BD1B
:103240001FB5044600940020ADF80400ADF8060058
:10325000ADF80800ADF80C000C20ADF80A00694686
:10326000204802F054F81FBD38B5044680211D489F
:1032700002F0B7F901280CD16846A0479DF800106C
:10328000184802F040F9012240F22771154802F077
:10329000D6F838BD10B5044621460F48FEF700FCAD
:1032A00010BD0D48704770B505460C4600260CB998
:1032B000002070BD224629460748FEF724FC06463A
:1032C000012E03D1AFF25710FFF7CEFF0120F0E738
:1032D0000249C8607047000078590020E856002075
:1032E00000100140004C004010B50446012C02D1F2
:1032F000FEF7CEFE00E000BF10BD70B506460C46DE
:103300001546012E04D129462046FEF73FFF00E076
:1033100000BF70BD2DE9F04107460C4615461E461C
:10332000012F05D1324629462046FEF7E5FE00E092
:1033300000BFBDE8F081000000210020654A12684E
:1033400042F48032634B1A6000BF624A126802F492
:103350000030491C10B9B1F5A06FF6D15D4A126872
:1033600012F4003F01D0012000E00020012842D1EA
:10337000594A126842F01002574B1A601A461268F6
:1033800022F003021A601A46126842F002021A6022
:10339000504A52684F4B5A601A4652685A601A4651
:1033A000526842F480625A601A46526822F47C12D3
:1033B0005A601A46526842F4E8125A601A46126875
:1033C00042F080721A6000BF424A126812F0007F19
:1033D000FAD0404A526822F003023E4B5A601A4625
:1033E000526842F002025A6000BF3A4A526802F044
:1033F0000C02082AF9D1704710B5FFF79DFF10BDE8
:1034000010B53448006840F00100324908600846B1
:103410004068324908402F494860084600683049F2
:1034200008402C4908600846006820F480200860A5
:103430000846406820F4FE0048604FF41F00886092
:10344000FFF7DAFF10BD10B5002100200022214B4C
:103450005B6803F00C0121B1042906D0082928D1AA
:1034600007E0204B204C236027E01E4B1E4C2360BE
:1034700023E0184B5B6803F47010164B5B6803F491
:103480008032022303EB904022B9184B4343164C81
:1034900023600DE00F4B5B6813F4003F04D0134B27
:1034A0004343114C236003E00E4B43430E4C236017
:1034B00003E00C4B0C4C236000BF00BF054B5B6866
:1034C000C3F303130A4CE15C074B1B68CB40064C6B
:1034D000236010BD00100240002002400000FFF8F1
:1034E000FFFFF6FE00127A004008002000093D00B0
:1034F0004408002036490143364A1160704770B5D0
:10350000002100230F22C4784CB3324C246804F409
:10351000E064C4F5E0644FEA1421C1F1040322FA27
:1035200001F2447804FA03F1847804EA020444EADC
:1035300001014FEA0111284C0678A155047804F0E6
:103540001F054FF0010404FA05F405784FEA6515EC
:103550004FF0E02606EB8505C5F8004109E0047848
:1035600004F01F050124AC401C4D0678761145F887
:10357000264070BD1A4A0A4002431A4B1A6070472F
:1035800041B1194A126842EA00024FF0E023C3F841
:10359000102D07E0144A126822EA00024FF0E023DF
:1035A000C3F8102D7047042808D14FF0E0210969B5
:1035B00041F004014FF0E022116107E04FF0E021FB
:1035C000096921F004014FF0E02211617047000009
:1035D0000000FA050CED00E000E400E080E100E00E
:1035E00080FFFF1F08ED00E010ED00E00146002025
:1035F000FF4A106800F03800084310607047FC492B
:10360000096821F00801FA4A11601146096801436E
:1036100011607047F649096821F01001F44A116001
:1036200011460968014311607047F248F04948604B
:10363000F14848607047EF48ED494860EE484860FF
:103640007047EB48006940F08000E9490861704725
:10365000E748006940F08000E549086170470420B0
:10366000E349C96801F00101012901D101200EE0FF
:10367000DF49C96811F0040F01D0022007E0DC49DE
:10368000C96811F0100F01D0032000E0042070473A
:1036900000B502460423FFF7E2FF034603E0FFF70D
:1036A000DEFF0346521E012B01D1002AF7D102B9D9
:1036B0000523184600BD30B5054604244FF43020DC
:1036C000FFF7E6FF0446042C19D1C948006940F011
:1036D0000200C749086108464561006940F04000A2
:1036E00008614FF43020FFF7D3FF0446052C06D0C5
:1036F000BF48006941F6FD710840BD490861204698
:1037000030BD10B504244FF43020FFF7C1FF04464C
:10371000042C18D1B648006940F00400B44908618F
:103720000846006940F0400008614FF43020FFF780
:10373000AFFF0446052C06D0AD48006941F6FB7189
:103740000840AB490861204610BD00B5024604237D
:10375000FFF785FF034603E0FFF781FF0346521E94
:10376000012B01D1002AF7D102B90523184600BD6B
:1037700010B504244FF43020FFF7E7FF0446042C73
:1037800018D19B48006940F0040099490861084637
:10379000006940F0400008614FF43020FFF7D5FF8A
:1037A0000446052C06D09248006941F6FB7108409A
:1037B0008F490861204610BD00208D49C96911F06C
:1037C000020F01D0012000E00020704730B5A52590
:1037D0000424FFF7F1FF00B100254FF43020FFF77C
:1037E00057FF0446042C3BD18248814988608248B7
:1037F00088600846006940F02000086108460069BA
:1038000040F0400008614FF43020FFF741FF0446CC
:10381000042C1CD17648006941F6DF7108407449D8
:1038200008610846006940F010000861734805808F
:103830004FF40050FFF72CFF0446052C10D06C48C5
:10384000006941F6EF7108406949086108E0052CFC
:1038500006D06748006941F6EF7108406449086185
:10386000204630BDF0B505460E4604240027E00290
:10387000FFF70EFF0446042C26D15D48006940F096
:1038800001005B4908612E80E002FFF701FF04465A
:10389000042C10D1AF1C300C3880E002FFF7F8FE8A
:1038A0000446052C10D05248006941F6FE710840CC
:1038B0004F49086108E0052C06D04D48006941F6E3
:1038C000FE7108404A4908612046F0BD70B50546C2
:1038D0000E460424E002FFF7DBFE0446042C13D15D
:1038E0004348006940F00100414908612E80E00230
:1038F000FFF7CEFE0446052C06D03D48006941F690
:10390000FE7108403A490861204670BD70B5054611
:103910000E460424E002FFF7BBFE0446042C17D138
:10392000344833498860344888600846006940F06C
:10393000100008612E80E002FFF7AAFE0446052C65
:1039400006D02B48006941F6EF710840284908610C
:10395000204670BD2DE9F04304464FF6FF7637460A
:10396000B046B1460425E443E6B2C4F30727C4F3E6
:1039700007484FEA1469E802FFF78AFE0546042D5E
:103980004DD11C481A4988601B4888600846006968
:1039900040F010000861FF2E06D0194806804FF451
:1039A0000050FFF775FE0546042D08D1FF2F06D005
:1039B000144807804FF40050FFF76AFE0546042DB7
:1039C00009D1B8F1FF0F06D00F48A0F80C88E80223
:1039D000FFF75EFE0546042D09D1B9F1FF0F06D0B1
:1039E0000948A0F80E98E802FFF752FE05460DE0E0
:1039F0000020024023016745AB89EFCD00F8FF1F8F
:103A000008F8FF1F0AF8FF1F00F0FF1F052D06D062
:103A10006948006941F6EF71084067490861284626
:103A2000BDE8F08330B5054604244FF43020FFF79D
:103A30002FFE0446042C41D160485F4988606048ED
:103A400088600846006940F0200008610846006967
:103A500040F0400008614FF43020FFF719FE0446A3
:103A6000042C22D15448006941F6DF7108405249C4
:103A700008610846006940F0100008611DB100208F
:103A80005049088002E0A5204E4908804FF43020BC
:103A9000FFF7FEFD0446052C10D04748006941F6AB
:103AA000EF7108404449086108E0052C06D04248FF
:103AB000006941F6DF7108403F490861204630BD8A
:103AC000F0B505460E46174604243C483A4988603E
:103AD0003B488860E002FFF7DBFD0446042C19D167
:103AE0003548006940F010003349086147F0F8009C
:103AF00030432843344908804FF40050FFF7C8FD95
:103B00000446052C06D02C48006941F6EF710840A8
:103B1000294908612046F0BD2748C06980087047E0
:103B20002548006A704700202349096811F0200FDA
:103B300001D0012000E00020704729B11E4A12691F
:103B400002431D4B1A6104E01B4A126982431A4B5F
:103B50001A61704701460020012908D1164AD2692E
:103B600012F0010F01D0012008E0002006E0124A07
:103B7000D2680A4201D0012000E0002070470E49BF
:103B8000C860704704200C49C96801F0010101298F
:103B900001D101200EE00849C96811F0040F01D0DD
:103BA000022007E00449C96811F0100F01D003207A
:103BB00000E0042070470000002002402301674518
:103BC000AB89EFCD00F8FF1F02F8FF1F10B50446C8
:103BD000CA48844208D10121042000F024FB0021BE
:103BE000042000F020FB46E0C548844208D10121B2
:103BF000082000F018FB0021082000F014FB3AE038
:103C0000C048844208D10121102000F00CFB0021A3
:103C1000102000F008FB2EE0BB48844208D10121AF
:103C2000202000F000FB0021202000F0FCFA22E020
:103C3000B648844208D10121402000F0F4FA002166
:103C4000402000F0F0FA16E0B148844208D101218A
:103C5000802000F0E8FA0021802000F0E4FA0AE079
:103C6000AC48844207D10121801500F0DCFA002124
:103C7000A01500F0D8FA10BD10B50121084600F0DB
:103C8000D2FA0021012000F0CEFA10BD2DE9F0415A
:103C9000024600250026002000230024002791F87A
:103CA00003C00CF00F0591F803C01CF0100F03D0F7
:103CB00091F802C04CEA0505B1F800C01CF0FF0FF6
:103CC00031D0146800202BE04FF0010C0CFA00F307
:103CD000B1F800C00CEA03069E4220D183004FF0E9
:103CE0000F0C0CFA03F7BC4305FA03FC4CEA04047E
:103CF00091F803C0BCF1280F06D14FF0010C0CFA6B
:103D000000FCC2F814C00AE091F803C0BCF1480FEF
:103D100005D14FF0010C0CFA00FCC2F810C0401C99
:103D20000828D1D31460B1F800C0BCF1FF0F34DD16
:103D3000546800202EE000F1080C4FF0010808FA4A
:103D40000CF3B1F800C00CEA03069E4221D18300B7
:103D50004FF00F0C0CFA03F7BC4305FA03FC4CEAD6
:103D6000040491F803C0BCF1280F05D100F1080C40
:103D700008FA0CF8C2F8148091F803C0BCF1480F9F
:103D800007D100F1080C4FF0010808FA0CF8C2F84E
:103D90001080401C0828CED35460BDE8F0814FF657
:103DA000FF710180022181700421C17070470246B9
:103DB000002093680B4201D0012000E000207047F2
:103DC0000146886880B2704702460020D3680B42E3
:103DD00001D0012000E0002070470146C86880B291
:103DE000704701617047416170470AB1016100E0AD
:103DF00041617047C16070474FF480320A4382616D
:103E00008161826182698269704702460020424B6B
:103E100018684FF68073184040EA021008433E4B82
:103E2000186070473D49C8617047F0B50A460023E5
:103E300000240021002500F00046B6F1004F02D119
:103E4000354EF16901E0344E7168C0F3034583B229
:103E500000F44016B6F5401F08D121F070612E4ED7
:103E6000766826F070662C4F7E6012E000F48016B3
:103E7000B6F5801F06D1032606FA05F4A14341F0EA
:103E8000706106E0460D360103FA06F6B14341F0D3
:103E9000706122B1460D360103FA06F6314300F097
:103EA0000046B6F1004F02D11B4EF16101E01A4EFF
:103EB0007160F0BD30B500228B071C0F0F2303FA91
:103EC00004F2154B08338C1053F824309343124CF2
:103ED00008348D1044F8253023468C1053F82430D4
:103EE0008C07240F00FA04F423430B4C08348D1084
:103EF00044F8253030BD0A49086070470008014089
:103F0000000C014000100140001401400018014065
:103F1000001C014000200140000001400000204240
:103F2000DC002042DB48006840F00100D94908600D
:103F300008464068D8490840D649486008460068A5
:103F4000D6490840D34908600846006820F480201C
:103F500008600846406820F4FE0048604FF41F00E7
:103F600088607047CB49096821F48031C94A1160E3
:103F70001146096821F480211160B0F5803F03D01B
:103F8000B0F5802F0ED106E0C249096841F48031B6
:103F9000C04A116007E0BF49096841F4A021BD4A49
:103FA000116000E000BF00BF704710B5014600225D
:103FB000002300204A11012A02D1B64C236806E0F2
:103FC000022A02D1B34C236A01E0B24C636A01F0C9
:103FD0001F02012494401C4201D0012000E0002077
:103FE00010BD70B500240025002600BF3120FFF76A
:103FF000DCFF0646641CB4F5A06F01D0002EF5D09E
:104000003120FFF7D2FF08B1012500E00025284646
:1040100070BD014600209F4A106820F0F80040EA79
:10402000C100106070479E4908607047024600203A
:10403000984B586820F47C1042EA01031843954BD2
:104040005860704796490866704701460020914ABB
:10405000506820F003000843506070478D48406866
:1040600000F00C007047014600208A4A506820F09A
:10407000F00008435060704701460020854A5068B0
:1040800020F4E06008435060704701460020814AF8
:10409000506820F4605040EAC1005060704729B178
:1040A0007C4A527A02437B4B5A7206E0794A527A32
:1040B000C343DBB21A40774B5A72704779490860A4
:1040C000704701460020734A506820F4404008437E
:1040D000506070470021744A11706E4A82F82010B7
:1040E000012802D0042808D103E001216E4A117092
:1040F00004E005216C4A117000E000BF00BF70476A
:104100006A49086070476349096A0143614A11625C
:10411000704767490860704730B5002100220024CD
:1041200000235C4D6D6805F00C0121B1042905D018
:10413000082923D105E05F4D056022E05D4D056053
:104140001FE0544D6D6805F47012524D6D6805F412
:104150008034022505EB92421CB9574D554305604A
:104160000BE04C4D6D6815F4003F03D0524D5543A4
:10417000056002E04F4D5543056002E04D4D05607E
:1041800000BF00BF434D6D6805F0F00109094B4DBC
:104190006B5C0568DD4045603E4D6D6805F4E0618F
:1041A000090A464D6B5C4568DD408560394D6D6898
:1041B00005F46051C90A414D6B5C4568DD40C5603E
:1041C000344D6D6805F44041890B3D4D6B5CC5680D
:1041D000B5FBF3F5056130BD29B12E4A52690243A2
:1041E0002C4B5A6104E02B4A52698243294B5A6195
:1041F000704729B1274A92690243264B9A6104E02D
:10420000244A92698243234B9A61704729B1214A1B
:10421000D26902431F4BDA6104E01E4AD26982432D
:104220001C4BDA61704729B11A4AD2680243194B14
:10423000DA6004E0174AD2688243164BDA607047AE
:1042400029B1144A12690243124B1A6104E0114A5F
:10425000126982430F4B1A6170471A490860704710
:104260000F49C86470470B49C87170470948406AD4
:1042700040F0807007494862704701460020054AB7
:1042800092680A4201D0012000E0002070470149F5
:1042900088727047001002400000FFF8FFFFF6FE32
:1042A00000004242D80042422010024080044242B4
:1042B0003C04424200127A0000093D0054080020EC
:1042C000640800204004424210B50446BF488442BE
:1042D00008D101218014FFF7A6FF0021A014FFF7E9
:1042E000A2FF16E0BA48844208D101210014FFF76A
:1042F000A7FF00212014FFF7A3FF0AE0B54884427E
:1043000007D10121C013FFF79BFF0021E013FFF746
:1043100097FF10BD10B50022028802F441520B88AD
:104320004C8823438C882343CC8823430C89234324
:104330004C8923438C892343CC8923431A4302802D
:10434000838B4FF2FF74234083830B8A038210BD5B
:104350002DE9F04F85B005460C464FF000090227C5
:104360004FF000084FF0010B0026B246A88B4FF229
:1043700040010840A88302202884B5F81C90A0685A
:10438000022801D100BF36E0A08810B94FF0010B20
:1043900001E04FF0020B8E48854200D100E000BFE3
:1043A0006846FFF7B9FEDDF800A0E088B0F5007FB1
:1043B0000AD14FEA1A2000EB80004000A168B0FB50
:1043C000F1F0401D86B20BE04FEA4B10BAFBF0F063
:1043D00000EB80004000A168B0FBF1F0401D86B208
:1043E0000A20B6FBF0F606F00108A6EB0800C0F3C1
:1043F0004F074FEA0828022F01DBFF2F02DD0227BB
:104400004FF00008E08840EA080038432884A0887C
:10441000A1890843618808432188084340F400606B
:1044200040EA0909A5F81C9005B0BDE8F08F00210D
:10443000018041808180C180018141818181C18170
:104440000721018270470021018041808180C18065
:104450000221816000218181704721B1028842F0F0
:104460004002028004E002884FF6BF731A400280C7
:10447000704721B1828B42F48062828304E0828B98
:104480004FF6FF331A408283704770B50024002333
:104490000C110125A540ABB21AB185881D4385805A
:1044A00004E08588DE43B6B23540858070BD10B526
:1044B0001AB183880B43838004E08388CC43A4B281
:1044C0002340838010BD81817047014688897047F1
:1044D000A1F57E42FF3A04D0028842F48072028045
:1044E00004E002884FF6FF631A400280704721B152
:1044F000828842F00402828004E082884FF6FB73D7
:104500001A408280704702884FF2FF731A4002807F
:1045100002880A4302807047018841F4805101807B
:10452000704721B1028842F40052028004E0028800
:104530004DF6FF731A4002807047024600200129A1
:1045400001D0108B00E0908A70470146088A7047BE
:10455000B1F5804F04D1028842F48042028004E029
:1045600002884BF6FF731A40028070470246002013
:1045700013890B4201D0012000E000207047CA439C
:1045800002817047F0B50246002000240023002578
:1045900001F00F070126BE40B4B20B1101269E4068
:1045A000B3B2968806EA03051689264202D00DB1F9
:1045B000012000E00020F0BD10B5002201F00F0442
:1045C0000123A3409AB2D343038110BD00300140C0
:1045D00000380040003C004010B50446FF488442CB
:1045E00008D10121C014FFF71EFE0021E014FFF7DF
:1045F0001AFEC4E0B4F1804F08D101210846FFF74C
:104600001FFE00210120FFF71BFEB8E0F4488442A2
:1046100008D101210220FFF713FE00210220FFF73D
:104620000FFEACE0EF48844208D101210420FFF7DF
:1046300007FE00210420FFF703FEA0E0EA488442C1
:1046400008D101210820FFF7FBFD00210820FFF71A
:10465000F7FD94E0E548844208D101211020FFF7DE
:10466000EFFD00211020FFF7EBFD88E0E0488442D9
:1046700008D101212020FFF7E3FD00212020FFF7D2
:10468000DFFD7CE0DB48844208D101214014FFF7C4
:10469000CAFD00216014FFF7C6FD70E0D6488442D1
:1046A00009D10121C804FFF7BEFD00214FF400200D
:1046B000FFF7B9FD63E0D148844209D10121080523
:1046C000FFF7B1FD00214FF48010FFF7ACFD56E07D
:1046D000CB48844209D101214805FFF7A4FD002100
:1046E0004FF40010FFF79FFD49E0C648844208D10F
:1046F00001214020FFF7A4FD00214020FFF7A0FD8D
:104700003DE0C148844208D101218020FFF798FD97
:1047100000218020FFF794FD31E0BC48844208D19D
:1047200001218015FFF78CFD0021A015FFF788FD02
:1047300025E0B748844209D101210804FFF773FD41
:1047400000214FF48030FFF76EFD18E0B14884423D
:1047500009D101214804FFF766FD00214FF4003024
:10476000FFF761FD0BE0AC48844208D101218804C9
:10477000FFF759FD00214FF48020FFF754FD10BDD5
:1047800000220288954B98420ED09A4B98420BD04B
:10479000B0F1804F08D0924B984205D0914B98428F
:1047A00002D0914B984204D14FF68F731A404B8838
:1047B0001A438E4B984207D08D4B984204D04FF647
:1047C000FF431A40CB881A4302808B8883850B886D
:1047D0000385824B98420BD0864B984208D08C4B75
:1047E000984205D08B4B984202D08B4B984201D116
:1047F0000B7A038601238382704770B50024002260
:104800000023058C4FF6FE7635400584028C8388A4
:10481000048B4FF68F752C40B51E2C400D882C4311
:10482000751E2A400D892A434D882A436B4DA842A4
:104830000BD0704DA84208D0754DA84205D0754DDB
:10484000A84202D0744DA84213D14FF6F7752A4002
:104850004D892A434FF6FB752A408D882A434FF62F
:10486000FF652B404FF6FF552B408D892B43CD899B
:104870002B4383800483CD888586028470BD70B508
:10488000002400220023058C4FF6EF763540058486
:10489000028C8388048B48F6FF752C404FF6FF4549
:1048A0002C400D882D0644EA15444FF6DF752A404A
:1048B0000D892D0542EA15424D882D0542EA154223
:1048C000464DA84202D04B4DA8421BD14FF67F75F2
:1048D0002A404D892D0542EA15424FF6BF752A4000
:1048E0008D882D0542EA15424FF6FF352B404FF2D9
:1048F000FF752B408D89AD0443EA1543CD89AD0486
:1049000043EA154383800483CD880587028470BD04
:1049100070B5002400220023058C4FF6FF66354059
:104920000584028C8388848B4FF68F752C404FF65C
:10493000FC752C400D882C434FF6FF552A400D89FD
:104940002D0642EA15424D882D0642EA1542234DB6
:10495000A84202D0274DA8421BD14FF2FF752A4032
:104960004D892D0642EA15424FF6FF352A408D88C3
:104970002D0642EA15424EF6FF752B404DF6FF75A7
:104980002B408D892D0543EA1543CD892D0543EA3A
:10499000154383808483CD888587028470BD70B57C
:1049A000002200230024058C4EF6FF763540058456
:1049B000038C8488828B48F6FF752A404FF6FF45AA
:1049C0002A400D882D0642EA15424DF6FF752B4010
:1049D0000D892D0743EA15434D881FE0002C014047
:1049E0000004004000080040000C0040001000409F
:1049F0000014004000340140004C014000500140D0
:104A00000054014000180040001C004000200040FD
:104A10000040014000440140004801402D0743EAA6
:104A20001543FF4DA84202D0FE4DA84206D14BF6D9
:104A3000FF752C408D89AD0544EA1544848082833E
:104A4000CD88A0F84050038470BD828B4FF2FF33B5
:104A50001A408283828B0B0642EA1342828370479C
:104A6000F0B50C461546002100220026078C4EF6B4
:104A7000FF7C07EA0C070784818B028C27073E0C1A
:104A800040F6FF4739402F0641EA17411F0741EA28
:104A900017414DF6FF773A4046F480573A438183F9
:104AA0000284F0BD828B4FF6F3731A408283828BAF
:104AB0000A4382837047F0B50C4615460021002258
:104AC0000026078C4FF6FF6C07EA0C070784818BE2
:104AD000028C27063E0C4FF60C7739401F0545EA3D
:104AE000174739434FF6FF573A4046F480773A4329
:104AF00081830284F0BD028B4FF2FF331A400283A0
:104B0000028B0B0642EA134202837047F0B50C4653
:104B10001546002100220026078C4FF6EF7C07EA9D
:104B20000C070784018B028C27053E0C40F6FF47DB
:104B300039401F0741EA17412F0641EA17414FF656
:104B4000DF773A4046F010073A4301830284F0BD14
:104B5000028B4FF6F3731A400283028B0A430283DF
:104B60007047F0B50C46154600210022068C4FF622
:104B7000FE773E400684018B028C4FF60C76314066
:104B80001E0545EA164631437E1E324044F00106BA
:104B9000324301830284F0BD70B505460C4620887F
:104BA00050B92389A28861882846FFF7DAFFE18897
:104BB0002846FFF7CDFF25E0208804280AD1238965
:104BC000A28861882846FFF7A1FFE1882846FFF701
:104BD00092FF17E0208808280AD12389A2886188DB
:104BE0002846FFF768FFE1882846FFF75BFF09E0EA
:104BF0002389A28861882846FFF732FFE18828468A
:104C0000FFF723FF70BD2DE9F04105460C46002655
:104C10000127608808B9022600E00026A088012844
:104C200001D1022700E001272088A0B92389A288AA
:104C300061882846FFF795FFE1882846FFF788FF3F
:104C400023893A4631462846FFF760FFE188284627
:104C5000FFF751FF13E02389A28861882846FFF7F8
:104C600055FFE1882846FFF746FF23893A4631463B
:104C70002846FFF776FFE1882846FFF769FFBDE881
:104C8000F0810A884B881A438B881A43CB881A43D1
:104C90000B891A434B891A438B891A43A0F8442085
:104CA00070474FF6FF71818000210180C1804180F3
:104CB000017270470021018041808180C1800181A3
:104CC00041818181C18170470021018041800121A2
:104CD00081800021C18001817047002101804180D5
:104CE0008180C180018141818181704721B1028829
:104CF00042F00102028004E002884FF6FE731A407F
:104D00000280704731B1B0F8442042F40042A0F86C
:104D1000442005E0B0F84420C2F30E02A0F844207D
:104D2000704710B51AB183890B43838104E08389EE
:104D3000CC43A4B22340838110BD8182704741EAF5
:104D40000203A0F84830704710B51AB183890B43AD
:104D5000838104E08389CC43A4B22340838110BDC6
:104D600001894FF6F8721140018170470A4600210F
:104D700001894FF68F73194011430181704730B597
:104D800004460D4629462046FFF7F0FF208940F0F3
:104D90000700208130BD2DE9F04104460D4616463E
:104DA0001F46602D06D13B46012231462046FFF7C3
:104DB000ADFE05E03B46012231462046FFF7D1FE1D
:104DC00029462046FFF7D2FF208940F007002081C6
:104DD000BDE8F08130B50C4600210189C9B21D063D
:104DE00042EA154525432943018130BD2DE9F041B3
:104DF00005460E4617469846002443463A46314635
:104E00002846FFF7E7FF2C894FF6F8710C4044F075
:104E100007044FF68F710C4044F070042C8103E0BE
:104E2000002C014000340140BDE8F081F0B504469B
:104E30000D4616461F463B46324629462046FFF79A
:104E4000C9FF208940F480402081F0BD0185828225
:104E500070470A46002101884FF68F7319401143AD
:104E600001807047F0B50C4615461E460021002211
:104E700000230189028B038C4FF6F87739402143D8
:104E80004FF6FC473A4040F201173A434FF6DD77C0
:104E90003B40370545EA17473B43018102830384C2
:104EA000F0BD0A460021018B4FF68F731940114364
:104EB000018370470A460021018B48F6FF731940B1
:104EC000130641EA1341018370470A460021818B92
:104ED0004FF68F7319401143818370470A460021B2
:104EE000818B48F6FF731940130641EA1341818311
:104EF000704721B1028842F08002028004E00288FB
:104F00004FF67F731A400280704721B1828842F0C9
:104F10000402828004E082884FF6FB731A4082808C
:104F2000704721B1828842F00802828004E08288C2
:104F30004FF6F7731A408280704721B1828842F0A1
:104F40000102828004E082884FF6FE731A4082805C
:104F500070470A460021018B4FF6F7731940114341
:104F6000018370470A460021018B4FF2FF731940FD
:104F7000130641EA1341018370470A460021818BE1
:104F80004FF6F77319401143818370470A46002199
:104F9000818B4FF2FF731940130641EA134181835D
:104FA00070470A460021018B4FF6FB7319401143ED
:104FB000018370470A460021018B4FF6FF331940E9
:104FC000130641EA1341018370470A460021818B91
:104FD0004FF6FB7319401143818370470A46002145
:104FE000818B4FF6FF331940130641EA1341818349
:104FF00070470A460021018B4FF67F731940114319
:10500000018370470A460021018BC1F30E0113068C
:1050100041EA1341018370470A460021818B4FF614
:105020007F7319401143818370470A460021818BA9
:10503000C1F30E01130641EA1341818370470A460A
:105040000021018C4FF6FD73194011430184704714
:105050000A460021018C4FF6F77319401143018471
:1050600070470A460021018C4FF6DF731940130583
:1050700041EA1341018470470A460021018C4FF632
:105080007F731940130541EA1341018470470A46B2
:105090000021018C4FF6FF531940130641EA1341DA
:1050A000018470470A460021018C4FF2FF731940BA
:1050B000130641EA1341018470470A460021018C1E
:1050C0004DF6FF731940130741EA134101847047FD
:1050D00030B5002301248C40A3B2048CDD43ADB273
:1050E0002C400484048C02FA01F5ADB22C430484F4
:1050F00030BD30B5002304248C40A3B2048CDD43C2
:10510000ADB22C400484048C02FA01F5ADB22C43FC
:10511000048430BD70B503460020002418461830C2
:1051200001258D40ACB21D8CE643B6B235401D84DE
:1051300009B1082909D100EB6100056825F0700567
:1051400005600568154305600CE00D1FADB200EB6E
:105150006500056825F4E04505600568160645EA22
:105160001645056070BD21B1028842F0020202803E
:1051700004E002884FF6FD731A400280704721B1A7
:10518000028842F00402028004E002884FF6FB73BA
:105190001A400280704721B1828842F080028280EA
:1051A00004E082884FF67F731A408280704702883D
:1051B0004FF6F7731A40028002880A430280704754
:1051C00082884FF68F731A40828082880A438280D9
:1051D000704702894FF6F8731A40028102890A4328
:1051E0000281704702894FF67F731A40028102895B
:1051F0000A430281704781847047818570478186A8
:1052000070470187704781877047A0F8401070474A
:1052100002884FF6FF431A40028002880A43028048
:1052200070470146888E70470146088F70470146D7
:10523000888F70470146B1F8400070470146888C5E
:1052400070470146088D704702460020138A0B42C2
:1052500001D0012000E000207047CA43028270475D
:1052600030B50246002000230024158A05EA010318
:10527000958905EA010413B10CB1012000E000207A
:1052800030BDCA430282704710B50446FC488442D0
:1052900009D101218803FEF7C6FF00214FF48040A9
:1052A000FEF7C1FF32E0F748844209D101214804EA
:1052B000FEF7C6FF00214FF40030FEF7C1FF25E0E6
:1052C000F148844209D101218804FEF7B9FF002189
:1052D0004FF48020FEF7B4FF18E0EC48844209D177
:1052E0000121C804FEF7ACFF00214FF40020FEF7B7
:1052F000A7FF0BE0E648844208D101210805FEF72C
:105300009FFF00214FF48010FEF79AFF10BD2DE99A
:10531000F04786B005460E460024A24600BFA146CF
:105320000027B08900B100BF2F462C8A4CF6FF70D1
:105330000440F08804432C82AC894EF6F3100440FC
:10534000B08831890843718908430443AC81AC8A31
:105350004FF6FF400440B0890443AC8201A8FEF739
:10536000DBFEC748874202D1DDF810A001E0DDF87E
:105370000CA0A88910F4004F08D00AEBCA0000EB7B
:105380000A1031684900B0FBF1F807E00AEBCA00E7
:1053900000EB0A1031688900B0FBF1F86420B8FB1B
:1053A000F0F004012009642101FB1089A88910F4A0
:1053B000004F08D0322000EBC900B0FBF1F000F044
:1053C0000700044308E0322000EB09106421B0FB21
:1053D000F1F000F00F0004432C8106B0BDE8F08727
:1053E0004FF41651016000218180C18001810C21A0
:1053F000418100218181704710B502460020108A4A
:105400004FF2FF0318400B884C8823438C882343BA
:10541000CC8823431843108210BD002101804180B5
:105420008180C180704721B1828942F4005282811B
:1054300004E082894DF6FF731A4082817047F0B50F
:1054400003460024002600250020A1F510676A3FCE
:1054500000D100BF1846C1F3421401F01F06012716
:1054600007FA06F5012C01D10C3004E0022C01D121
:10547000103000E014301AB107682F43076002E0D3
:105480000768AF430760F0BD10B51AB1838A0B43BC
:10549000838204E0838ACC43A4B22340838210BD7C
:1054A000028A4FF6F0731A400282028A0A4302828D
:1054B000704782894FF2FF731A40828182890A43C2
:1054C0008281704721B1828942F00202828104E028
:1054D00082894FF6FD731A4082817047028A4FF627
:1054E000DF731A400282028A0A430282704721B1A6
:1054F000028A42F48042028204E0028A4BF6FF7381
:105500001A4002827047C1F3080282807047014648
:105510008888C0F308007047818941F001018181CA
:105520007047028BD2B20283028B42EA01220283CD
:105530007047028B02F47F420283028B0A4302838C
:10554000704721B1828A42F02002828204E0828A7E
:105550004FF6DF731A408282704721B1828A42F08F
:105560001002828204E0828A4FF6EF731A40828230
:10557000704721B1828A42F00802828204E0828A66
:105580004FF6F7731A408282704721B1828942F444
:105590000042828103E08289C2F30E028281704759
:1055A00021B1828A42F40062828204E0828A4FF250
:1055B000FF731A4082827047828A4FF6FB731A404B
:1055C0008282828A0A438282704721B1828A42F0B3
:1055D0000202828204E0828A4FF6FD731A408282C0
:1055E000704702460020B1F5007F00D100BF13884C
:1055F0000B4201D0012000E00020704701F400724E
:10560000B2F5007F00D100BFCA430280704770B579
:1056100002460024002300250020A1F510666A3E02
:1056200000D100BFC1F3421501F01F03012606FAA5
:1056300003F3012D02D19689334006E0022D02D1F9
:10564000168A334001E0968A33400C12012606FA8E
:1056500004F41688344013B10CB1012000E000209E
:1056600070BD10B500220023A1F510646A3C00D182
:1056700000BF0A1201249440A3B2DC43048010BD91
:10568000003801400044004000480040004C004009
:105690000050004010B50446EF48844209D1012172
:1056A0004805FEF7CDFD00214FF40010FEF7C8FDC0
:1056B00008E001218805FEF7C3FD00214FF48000BA
:1056C000FEF7BEFD10BD2DE9F04385B004460D4642
:1056D0000026B1460427DFF88483A6884FF6C07100
:1056E0000E406846FEF718FDDDF80880DC48B8FB80
:1056F000F0F01FFA80F946EA0906A68020884FF6E6
:10570000FE71084020800026D649286888420CD8BF
:1057100028684000B8FBF0F087B2042F00DA0427B5
:105720003E4309F10100208427E0E888A0F53F41CD
:10573000FF3906D1286800EB4000B8FBF0F087B2D3
:1057400009E0286800EBC00101EB0010B8FBF0F0A5
:1057500087B247F480473805000D01D147F00107B3
:1057600047F4004006434FF4967009FB00F04FF4F5
:105770007A7190FBF1F0401C2084A683208840F0D1
:105780000100208026884FF6F5310E40A8886989EF
:10579000084306432680A88929890843208105B04B
:1057A000BDE8F08341F288310160002181804BF631
:1057B000FF71C1800021018141814FF480418181CD
:1057C000704721B1028842F00102028004E00288A1
:1057D0004FF6FE731A400280704721B1828842F46E
:1057E0000062828004E082884FF2FF731A40828058
:1057F000704721B1828842F48052828004E082881E
:105800004EF6FF731A408280704721B1028842F43D
:105810008072028004E002884FF6FF631A40028023
:10582000704721B1028842F40072028004E00288CD
:105830004FF6FF531A400280704721B1028842F4AC
:105840008062028004E002884FF6FF331A40028033
:1058500070470A46002181894FF60173194002F012
:10586000FE0319438181704721B1828942F0010210
:10587000828104E082894FF6FE731A40828170476C
:1058800021B1028842F04002028004E002884FF613
:10589000BF731A400280704710B51AB183880B435A
:1058A000838004E08388CC43A4B22340838010BD6E
:1058B000018270470146088AC0B2704712B141F0B8
:1058C000010102E04FF6FE73194001827047024663
:1058D000002313460B441888704721B1028842F414
:1058E0000042028003E00288C2F30E020280704789
:1058F000B1F5005F04D1028842F40052028004E056
:1059000002884DF6FF731A400280704721B1028869
:1059100042F48052028004E002884EF6FF731A407F
:1059200002807047B1F5006F04D1028842F4006232
:10593000028004E002884FF2FF731A400280704731
:1059400021B1028842F02002028004E002884FF672
:10595000DF731A40028070470146088B00127047BF
:1059600021B1028842F01002028004E002884FF662
:10597000EF731A400280704721B9028842F080021A
:10598000028004E002884FF67F731A40028070475D
:10599000B1F5804F05D0828B4BF6FF731A4082839E
:1059A00003E0828B42F480428283704770B50246E6
:1059B0000024002500230020958A138B1B0445EA50
:1059C000030626F07F4404EA01068E4201D101203D
:1059D00000E0002070BD10B5014600200023002229
:1059E0008B8A0A8B120443EA020424F07F4010BD24
:1059F00030B503460020002400221A460C0F21F087
:105A00007F410CB1143201E0090C183215680D42C7
:105A100001D0012000E0002030BD002221F07F42B3
:105A2000D3438382704730B5024600200023948818
:105A300001F0E06504EA154321F07F41948A0C42AD
:105A400002D00BB1012000E0002030BD002221F087
:105A50007F42D343838270470054004000127A0093
:105A600040420F00A08601000648804706480047D4
:105A7000FEE7FEE7FEE7FEE7FEE7FEE7FEE7FEE7FE
:105A8000FEE7FEE701340008310100082DE9F05F70
:105A90000546002092469B4688460646814640249D
:105AA0001DE0284641464746224600F05CFBB0EB2D
:105AB0000A0052465B4671EB0B0110D310461946A3
:105AC000224600F041FB2D1A67EB01084F462246A3
:105AD0000120002100F038FB17EB00094E41201E89
